:020000042000DA
:100000000000012099020020090300200B030020BA
:100010000D0300200F03002011030020000000004A
:10002000000000000000000000000000130300209A
:100030001503002000000000170300201903002012
:100040001B0300201D0300201F03002021030020AC
:10005000230300202503002027030020290300207C
:100060002B0300202D030020F90C0020250D00207B
:10007000330300203503002037030020390300201C
:100080003B0300203D0300203F03002041030020EC
:10009000910700204503002047030020490300206A
:1000A0004B030020000000000000000000000000E2
:1000B0000000000000000000000000004D060020CD
:1000C0004F0300205103002053030020550300205C
:1000D00057030020590300205B0300205D0300202C
:1000E0005F030020610300206303002065030020FC
:1000F00067030020690300206B0300206D030020CC
:100100006F0300207103002073030020750300209B
:1001100077030020790300207B0300207D0300206B
:100120007F0300208103002083030020850300203B
:1001300087030020890300208B0300208D0300200B
:100140008F030020910300209303002095030020DB
:1001500097030020990300209B0300209D030020AB
:100160009F030020A1030020A3030020A50300207B
:10017000A7030020A9030020AB030020AD0300204B
:10018000AF030020B1030020B3030020B50300201B
:10019000B7030020B9030020BB030020BD030020EB
:1001A000BF030020C1030020C3030020C5030020BB
:1001B000C7030020C9030020CB030020CD0300208B
:1001C000CF030020D1030020D3030020D50300205B
:1001D000D7030020D9030020DB030020DD0300202B
:1001E000DF030020E1030020E3030020E5030020FB
:1001F000E7030020E9030020EB030020ED030020CB
:10020000EF030020F1030020F3030020F50300209A
:10021000F7030020F9030020FB030020FD0300206A
:10022000FF03002001040020030400200504002037
:1002300007040020090400200B0400200D04002006
:100240000F040020110400201304002015040020D6
:1002500017040020190400201B0400201D040020A6
:100260001F04002021040020230400202504002076
:1002700027040020290400202B0400202D04002046
:100280002F04002031040020330400203504002016
:100290003704002039040020684880476848002857
:1002A0000BD168486849694A884206D091421CBF10
:1002B00050F8043B41F8043BF8D165486549664A6B
:1002C000884206D091421CBF50F8043B41F8043BE1
:1002D000F8D162486249634A914218BF41F8040B61
:1002E000FAD1000000000000000000000000000043
:1002F000DFF874010FF2030E00474FF000004FF0DB
:100300000001DFF868F1FEE7FEE7FEE7FEE7FEE743
:10031000FEE7FEE7FEE7FEE7FEE7FEE7FEE7FEE7B5
:10032000FEE7FEE7FEE7FEE7FEE7FEE7FEE7FEE7A5
:10033000FEE7FEE7FEE7FEE7FEE7FEE7FEE7FEE795
:10034000FEE7FEE7FEE7FEE7FEE7FEE7FEE7FEE785
:10035000FEE7FEE7FEE7FEE7FEE7FEE7FEE7FEE775
:10036000FEE7FEE7FEE7FEE7FEE7FEE7FEE7FEE765
:10037000FEE7FEE7FEE7FEE7FEE7FEE7FEE7FEE755
:10038000FEE7FEE7FEE7FEE7FEE7FEE7FEE7FEE745
:10039000FEE7FEE7FEE7FEE7FEE7FEE7FEE7FEE735
:1003A000FEE7FEE7FEE7FEE7FEE7FEE7FEE7FEE725
:1003B000FEE7FEE7FEE7FEE7FEE7FEE7FEE7FEE715
:1003C000FEE7FEE7FEE7FEE7FEE7FEE7FEE7FEE705
:1003D000FEE7FEE7FEE7FEE7FEE7FEE7FEE7FEE7F5
:1003E000FEE7FEE7FEE7FEE7FEE7FEE7FEE7FEE7E5
:1003F000FEE7FEE7FEE7FEE7FEE7FEE7FEE7FEE7D5
:10040000FEE7FEE7FEE7FEE7FEE7FEE7FEE7FEE7C4
:10041000FEE7FEE7FEE7FEE7FEE7FEE7FEE7FEE7B4
:10042000FEE7FEE7FEE7FEE7FEE7FEE7FEE7FEE7A4
:10043000FEE7FEE7FEE7FEE7FEE70000510D0020C5
:10044000000000000000002000000020B811002083
:10045000B8110020B8110020D411002000000000C5
:10046000D411002040120020950F00209D0600208E
:1004700041F2D413C2F200031A780AB901201870AD
:10048000704700BF41F2B810C2F2000008B503681F
:100490002BB140F20003C0F2000303B1984708BD3E
:1004A00080B483B000AF0346FB804EF20013CEF25F
:1004B0000003B7F906204FEA5212F98801F01F0134
:1004C0004FF0010000FA01F143F8221007F10C0788
:1004D000BD4680BC704700BF80B483B000AF034608
:1004E000FB804EF20013CEF20003B7F906204FEA6C
:1004F0005212F98801F01F014FF0010000FA01F1DA
:1005000002F1200243F8221007F10C07BD4680BC1F
:10051000704700BF80B483B000AF0346FB804EF24B
:100520000013CEF20003B7F906204FEA5212F98801
:1005300001F01F014FF0010000FA01F102F1600229
:1005400043F8221007F10C07BD4680BC704700BF7E
:1005500080B582B000AF0346FB714FF01400FFF787
:10056000BBFF42F20003CEF2040342F20002CEF2DD
:100570000402126B22F040021A6345F20003C4F237
:1005800000034FF000025A6540F20003C4F20A2350
:100590004FF00002C3F8802140F20003C4F20A23A6
:1005A0004FF00002C3F8882140F20003C4F20A238E
:1005B000FA79C3F8842145F20003C4F200034FF036
:1005C00001021A614FF01400FFF7A4FF07F10807BA
:1005D000BD4680BD80B400AF40F20003C4F20A23E0
:1005E0004FF00102C3F88021BD4680BC704700BFB8
:1005F00080B483B000AF786045F20003C4F200031A
:100600007A685A6007F10C07BD4680BC704700BF8E
:1006100080B500AF40F20003C4F20A234FF001029C
:10062000C3F888214FF01400FFF73AFF80BD00BFE8
:1006300080B400AF45F20003C4F200034FF00102A2
:100640001A61BFF34F8FBD4680BC704780B500AFC5
:1006500040F6E473C2F200031B68184641F24811E9
:10066000C2F2000100F0CEF941F2DC13C2F2000345
:100670004FF010021A7041F2DC13C2F200031B7833
:100680001A4640F20013C4F2050313444FF000026F
:100690001A604FF01F00FFF73DFF80BD80B500AF2F
:1006A00040F6E473C2F200031B6818464FF4E131D0
:1006B0004FF0030200F0A4F840F6E473C2F2000326
:1006C0001B68184640F6E871C2F2000100F09AF982
:1006D0004FF01F00FFF7E4FE4FF00000FFF738FF78
:1006E0004FF6FF70FFF784FFFFF774FFFFF790FFEF
:1006F00000F008F841F2DB13C2F200034FF00002F1
:100700001A70FEE780B400AF41F2E413C2F20003B6
:100710004FF6FF721A6041F2DC13C2F200034FF091
:1007200000021A7041F2DC13C2F200031B781A4671
:1007300040F20013C4F2050313441A4641F2E413D5
:10074000C2F200031B68136041F2E413C2F200031B
:100750004FF003021A6041F2DC13C2F200034FF0C3
:1007600008021A7041F2DC13C2F200031B781A4629
:1007700040F20013C4F2050313441A4641F2E41395
:10078000C2F200031B681360BD4680BC704700BF07
:10079000684620F007018D4689B500AF40F6E47346
:1007A000C2F200031B68184641F27811C2F2000140
:1007B00000F028F9FFF73CFFBD46BDE889408546BB
:1007C000704700BF80B483B000AF0346FB804EF299
:1007D0000013CEF20003B7F906204FEA5212F9884F
:1007E00001F01F014FF0010000FA01F102F1600277
:1007F00043F8221007F10C07BD4680BC704700BFCC
:1008000080B588B000AFF860B9601346FB714FF057
:100810000103FB824FF00003BB61FA6841F214232D
:10082000C2F200039A4207D0FA6841F2EC13C2F216
:1008300000039A4200D000BEBB68002B00D100BE6E
:1008400000F08CFAFA6841F21423C2F200039A42D3
:100850002ED1FB684FF080421A60FB684FF0844253
:100860005A60FB684FF00A021A8141F2C413C2F2C7
:1008700000031B68BB6142F20003CEF2040342F2A4
:100880000002CEF20402126B42F080021A634FF0B3
:100890000A00FFF797FF42F20003CEF2040342F290
:1008A0000002CEF20402126B22F080021A6331E0E1
:1008B000FA6840F20003C4F201031360FA6840F2E0
:1008C0000003C4F220235360FB684FF00B021A812F
:1008D00041F2C813C2F200031B68BB6142F200037D
:1008E000CEF2040342F20002CEF20402126B42F492
:1008F00080721A634FF00B00FFF764FF42F20003AF
:10090000CEF2040342F20002CEF20402126B22F491
:1009100080721A63FB681B684FF000021A71BB6893
:10092000002B21D0BA69BB68B2FBF3F3FB61FB6912
:1009300003F00803002B06D0FB694FEA131303F101
:100940000103FB6103E0FB694FEA1313FB61FA69E2
:100950004FF6FF739A4200D900BEFA694FF6FF7353
:100960009A4201D8FB69FB82FB685B684FF0010289
:10097000C3F89C21FB681B68FA8A4FEA122292B2E4
:10098000D2B21A71FB681B68FA8AD2B21A70FB687D
:100990005B684FF00002C3F89C21FB681B68FA7982
:1009A0001A73FB681B684FF00E021A72FB685B68D3
:1009B0004FF00002C3F81022FB684FF000021A61EA
:1009C000FB684FF00002DA60FB684FF000025A61EA
:1009D000FB684FF00002DA61FA6840F6F133C2F2C8
:1009E00000031362FB684FF000029A61FB684FF04E
:1009F00000025A62FB684FF000029A7207F120076A
:100A0000BD4680BD80B487B000AF786039604FF0DC
:100A10000003BB607A6841F21423C2F200039A42D9
:100A200007D07A6841F2EC13C2F200039A4200D078
:100A300000BE3B68002B00D100BE7A6841F214234F
:100A4000C2F200039A4206D07A6841F2EC13C2F275
:100A500000039A4238D13B68002B35D03A68BB6816
:100A600013441B783B612CE07B681B681B7DFB7586
:100A70007B689A7AFB7D42EA0303DAB27B689A725A
:100A8000FB7D03F02003002BEED04FF00003FB6052
:100A900011E07B681B683A69D2B21A70FB6803F1F7
:100AA0000103FB60BB6803F10103BB603A68BB68EC
:100AB00013441B783B613B69002B02D0FB680F2B72
:100AC000E7D93B69002BCFD107F11C07BD4680BC9D
:100AD000704700BF80B584B000AF78607A6841F29B
:100AE0001423C2F200039A4207D07A6841F2EC1351
:100AF000C2F200039A4200D000BE7A6841F2142389
:100B0000C2F200039A4206D07A6841F2EC13C2F2B4
:100B100000039A4267D17B681B681B7ADBB203F043
:100B20000F03FB73FB7B0C2B54D801A252F823F06C
:100B3000650B0020D50B0020810B0020D50B002079
:100B40009D0B0020D50B0020B90B0020D50B0020F9
:100B5000D50B0020D50B0020D50B0020D50B002095
:100B60009D0B00207B685B6A002B00D100BE7B6878
:100B70005B6A002B30D07B685B6A7868984732E00C
:100B80007B681B6A002B00D100BE7B681B6A002BB0
:100B900024D07B681B6A7868984724E07B68DB690F
:100BA000002B00D100BE7B68DB69002B18D07B686E
:100BB000DB697868984716E07B689B69002B00D159
:100BC00000BE7B689B69002B0CD07B689B697868B2
:100BD000984708E000BE06E000BF04E000BF02E066
:100BE00000BF00E000BF07F11007BD4680BD00BF99
:100BF00080B487B000AF78607A6841F21423C2F203
:100C000000039A4207D07A6841F2EC13C2F2000363
:100C10009A4200D000BE7B68DB68002B00D100BE8A
:100C20007B681B69002B00D100BE7A6841F2142357
:100C3000C2F200039A4206D07A6841F2EC13C2F283
:100C400000039A4252D17B68DB68002B4ED07B6850
:100C50001B69002B4AD07B681B681B7DFB727B687D
:100C60009A7AFB7A42EA0303DAB27B689A72FB7AD9
:100C700003F02003002B29D04FF010033B617B6869
:100C80001A697B685B69C3EB02037B617B690F2B8D
:100C900001D87B693B614FF00003FB6012E07B6889
:100CA0001B687A68D1687A6852690A4412781A70A7
:100CB0007B685B6903F101027B685A61FB6803F1A1
:100CC0000103FB60FA683B699A42E8D37B685A6982
:100CD0007B681B699A4209D17B684FF000021A6158
:100CE0007B685B684FF00002C3F8842007F11C07A3
:100CF000BD4680BC704700BF684620F007018D46A6
:100D000089B500AF41F21420C2F20000FFF7E2FE05
:100D10004FF00A00FFF756FDBD46BDE88940854605
:100D2000704700BF684620F007018D4689B500AFC7
:100D300041F2EC10C2F20000FFF7CCFE4FF00B00C6
:100D4000FFF740FDBD46BDE889408546704700BFBE
:100D500080B400AFBD4680BC704700BF80B58AB08C
:100D600000AF41F28813C2F20003BC460FCB8CE8FF
:100D70000F0042F20003CEF204039B6C4FEA930390
:100D800003F003034FEA830307F12802134453F8E7
:100D9000283C3B6142F20003CEF204039B6C4FEA15
:100DA000131303F003034FEA830307F128021344EC
:100DB00053F8283C7B6142F20003CEF204039B6CA3
:100DC0004FEA931303F003034FEA830307F128026A
:100DD000134453F8283CBB6142F20003CEF20403F3
:100DE000DB6C4FEA132303F01F033B6242F2000364
:100DF000CEF20403DB6C4FEA533303F001037B6252
:100E00003B6A03F10103FB617B6A002B03D0FB69A2
:100E10004FEA4303FB6100F049F8024641F2C01378
:100E2000C2F200031A6041F2C013C2F200031A6852
:100E30003B69B2FBF3F241F2C413C2F200031A6041
:100E400041F2C013C2F200031A687B69B2FBF3F2ED
:100E500041F2C813C2F200031A6041F2C013C2F299
:100E600000031A68BB69B2FBF3F241F2CC13C2F281
:100E700000031A6041F2C013C2F200031A68FB6952
:100E8000B2FBF3F241F2D013C2F200031A6041F256
:100E9000C013C2F200031A6841F2BC13C2F200038D
:100EA0001A6007F12807BD4680BD00BF80B48BB033
:100EB00000AF4FF000037B6040F61C03C6F208034E
:100EC000BB6040F23023C6F20803FB60FB681B687E
:100ED00023F070433B613A6941F2CF13C0F2A15352
:100EE0009A4208D14EF62C73C6F201037B617B69EE
:100EF0001B687B603DE0BB681A6844F24133C4F66E
:100F000054439A4235D140F64003C6F20803BB6110
:100F1000BB691B68FB61FB6923F07F43FB61FA69D6
:100F200040F20033C0F201039A4222D9FA694FF627
:100F3000FF73C0F201039A4208D841F22C63C6F253
:100F400008033B623B6A1B687B6012E0FA694FF65C
:100F5000FF73C0F202039A4208D841F6AC63C6F2AE
:100F600008037B627B6A1B687B6002E04FF0000332
:100F70007B607B68002B05D100BE47F64003C0F2C2
:100F80007D137B607B68184607F12C07BD4680BC4B
:100F9000704700BF70B541F2B01641F2B015C2F211
:100FA0000006C2F20005761BB61006D0002455F8E4
:100FB000243001349847A642F9D841F2B01541F2E5
:100FC000B416C2F20005C2F20006761B00F0E4F887
:100FD000B61006D0002455F8243001349847A642B4
:100FE000F9D870BD141200200D0A0D0A2A2A2A2AE7
:100FF0002A2A2A2A2A2A2A2A2A2A2A2A2A2A2A2A51
:101000002A2A2A2A2A2A2A2A2A2A2A2A2A2A2A2A40
:101010002A2A2A2A2A2A2A2A2A2A2A2A2A2A2A2A30
:101020002A2A2A2A2A2A2A2A2A2A2A2A2A2A2A2A20
:101030002A2A0D0A2A2A2A2A2A2A2A2A2A2A2A2A4D
:101040002A2A2A2A2A20536D617274467573696FA1
:101050006E204D53532053504920466C61736820D5
:101060006578616D706C65202A2A2A2A2A2A2A2A24
:101070002A2A2A2A2A2A2A2A2A0D0A2A2A2A2A2A0D
:101080002A2A2A2A2A2A2A2A2A2A2A2A2A2A2A2AC0
:101090002A2A2A2A2A2A2A2A2A2A2A2A2A2A2A2AB0
:1010A0002A2A2A2A2A2A2A2A2A2A2A2A2A2A2A2AA0
:1010B0002A2A2A2A2A2A2A2A2A2A2A2A2A2A2A2A90
:1010C0002A0D0A54686973206578616D706C65201B
:1010D00070726F6A6563742077617320656C6162FA
:1010E0006F726174656420746F2045534947454CA5
:1010F000454320536F4320636F75727365200D0A5B
:101100002D2D2D2D2D2D2D2D2D2D2D2D2D2D2D2D0F
:101110002D2D2D2D2D2D2D2D2D2D2D2D2D2D2D2DFF
:101120002D2D2D2D2D2D2D2D2D2D2D2D2D2D2D2DEF
:101130002D2D2D2D2D2D2D2D2D2D2D2D2D2D2D2DDF
:101140002D2D2D2D2D0D0A000A0D20436F72655493
:10115000696D657220696E74657272757074206F46
:1011600063637572726564202D20464142494E5476
:10117000200A0D20000000000A0D204D4152434F6F
:1011800053200A0D200000000100000002000000B2
:101190000400000001000000F8B500BFF8BC08BC66
:1011A0009E467047F8B500BFF8BC08BC9E46704725
:0811B0008504002071040020F9
:1011B8000000000040787D0140787D01105E5F00EE
:0C11C800105E5F00105E5F00105E5F00B4
:04000005200002993C
:00000001FF
